{
  "contractName": "ChainwaveMultiSigWallet",
  "abi": [
    {
      "inputs": [
        {
          "internalType": "address[]",
          "name": "_approvers",
          "type": "address[]"
        },
        {
          "internalType": "uint256",
          "name": "_quorum",
          "type": "uint256"
        }
      ],
      "stateMutability": "nonpayable",
      "type": "constructor"
    },
    {
      "inputs": [
        {
          "internalType": "address",
          "name": "",
          "type": "address"
        },
        {
          "internalType": "uint256",
          "name": "",
          "type": "uint256"
        }
      ],
      "name": "approvals",
      "outputs": [
        {
          "internalType": "bool",
          "name": "",
          "type": "bool"
        }
      ],
      "stateMutability": "view",
      "type": "function",
      "constant": true
    },
    {
      "inputs": [
        {
          "internalType": "address",
          "name": "",
          "type": "address"
        },
        {
          "internalType": "uint256",
          "name": "",
          "type": "uint256"
        }
      ],
      "name": "approverApprovals",
      "outputs": [
        {
          "internalType": "bool",
          "name": "",
          "type": "bool"
        }
      ],
      "stateMutability": "view",
      "type": "function",
      "constant": true
    },
    {
      "inputs": [
        {
          "internalType": "uint256",
          "name": "",
          "type": "uint256"
        }
      ],
      "name": "approverProposals",
      "outputs": [
        {
          "internalType": "uint256",
          "name": "id",
          "type": "uint256"
        },
        {
          "internalType": "address",
          "name": "newApprover",
          "type": "address"
        },
        {
          "internalType": "bool",
          "name": "adding",
          "type": "bool"
        },
        {
          "internalType": "uint256",
          "name": "approvals",
          "type": "uint256"
        },
        {
          "internalType": "bool",
          "name": "passed",
          "type": "bool"
        }
      ],
      "stateMutability": "view",
      "type": "function",
      "constant": true
    },
    {
      "inputs": [
        {
          "internalType": "uint256",
          "name": "",
          "type": "uint256"
        }
      ],
      "name": "approvers",
      "outputs": [
        {
          "internalType": "address",
          "name": "",
          "type": "address"
        }
      ],
      "stateMutability": "view",
      "type": "function",
      "constant": true
    },
    {
      "inputs": [],
      "name": "quorum",
      "outputs": [
        {
          "internalType": "uint256",
          "name": "",
          "type": "uint256"
        }
      ],
      "stateMutability": "view",
      "type": "function",
      "constant": true
    },
    {
      "inputs": [
        {
          "internalType": "address",
          "name": "",
          "type": "address"
        },
        {
          "internalType": "uint256",
          "name": "",
          "type": "uint256"
        }
      ],
      "name": "quorumApprovals",
      "outputs": [
        {
          "internalType": "bool",
          "name": "",
          "type": "bool"
        }
      ],
      "stateMutability": "view",
      "type": "function",
      "constant": true
    },
    {
      "inputs": [
        {
          "internalType": "uint256",
          "name": "",
          "type": "uint256"
        }
      ],
      "name": "quorumProposals",
      "outputs": [
        {
          "internalType": "uint256",
          "name": "id",
          "type": "uint256"
        },
        {
          "internalType": "uint256",
          "name": "quorum",
          "type": "uint256"
        },
        {
          "internalType": "uint256",
          "name": "approvals",
          "type": "uint256"
        },
        {
          "internalType": "bool",
          "name": "passed",
          "type": "bool"
        },
        {
          "internalType": "bool",
          "name": "ended",
          "type": "bool"
        }
      ],
      "stateMutability": "view",
      "type": "function",
      "constant": true
    },
    {
      "inputs": [
        {
          "internalType": "uint256",
          "name": "",
          "type": "uint256"
        }
      ],
      "name": "transfers",
      "outputs": [
        {
          "internalType": "uint256",
          "name": "id",
          "type": "uint256"
        },
        {
          "internalType": "uint256",
          "name": "amount",
          "type": "uint256"
        },
        {
          "internalType": "address payable",
          "name": "to",
          "type": "address"
        },
        {
          "internalType": "uint256",
          "name": "approvals",
          "type": "uint256"
        },
        {
          "internalType": "bool",
          "name": "sent",
          "type": "bool"
        }
      ],
      "stateMutability": "view",
      "type": "function",
      "constant": true
    },
    {
      "stateMutability": "payable",
      "type": "receive",
      "payable": true
    },
    {
      "inputs": [],
      "name": "getApprovers",
      "outputs": [
        {
          "internalType": "address[]",
          "name": "",
          "type": "address[]"
        }
      ],
      "stateMutability": "view",
      "type": "function",
      "constant": true
    },
    {
      "inputs": [],
      "name": "getTransfers",
      "outputs": [
        {
          "components": [
            {
              "internalType": "uint256",
              "name": "id",
              "type": "uint256"
            },
            {
              "internalType": "uint256",
              "name": "amount",
              "type": "uint256"
            },
            {
              "internalType": "address payable",
              "name": "to",
              "type": "address"
            },
            {
              "internalType": "uint256",
              "name": "approvals",
              "type": "uint256"
            },
            {
              "internalType": "bool",
              "name": "sent",
              "type": "bool"
            }
          ],
          "internalType": "struct ChainwaveMultiSigWallet.Transfer[]",
          "name": "",
          "type": "tuple[]"
        }
      ],
      "stateMutability": "view",
      "type": "function",
      "constant": true
    },
    {
      "inputs": [],
      "name": "getQuorumProposals",
      "outputs": [
        {
          "components": [
            {
              "internalType": "uint256",
              "name": "id",
              "type": "uint256"
            },
            {
              "internalType": "uint256",
              "name": "quorum",
              "type": "uint256"
            },
            {
              "internalType": "uint256",
              "name": "approvals",
              "type": "uint256"
            },
            {
              "internalType": "bool",
              "name": "passed",
              "type": "bool"
            },
            {
              "internalType": "bool",
              "name": "ended",
              "type": "bool"
            }
          ],
          "internalType": "struct ChainwaveMultiSigWallet.QuorumProposal[]",
          "name": "",
          "type": "tuple[]"
        }
      ],
      "stateMutability": "view",
      "type": "function",
      "constant": true
    },
    {
      "inputs": [],
      "name": "getApproverProposals",
      "outputs": [
        {
          "components": [
            {
              "internalType": "uint256",
              "name": "id",
              "type": "uint256"
            },
            {
              "internalType": "address",
              "name": "newApprover",
              "type": "address"
            },
            {
              "internalType": "bool",
              "name": "adding",
              "type": "bool"
            },
            {
              "internalType": "uint256",
              "name": "approvals",
              "type": "uint256"
            },
            {
              "internalType": "bool",
              "name": "passed",
              "type": "bool"
            }
          ],
          "internalType": "struct ChainwaveMultiSigWallet.ApproverProposal[]",
          "name": "",
          "type": "tuple[]"
        }
      ],
      "stateMutability": "view",
      "type": "function",
      "constant": true
    },
    {
      "inputs": [
        {
          "internalType": "address",
          "name": "approverAddr",
          "type": "address"
        },
        {
          "internalType": "bool",
          "name": "adding",
          "type": "bool"
        }
      ],
      "name": "proposeApproverChange",
      "outputs": [],
      "stateMutability": "nonpayable",
      "type": "function"
    },
    {
      "inputs": [
        {
          "internalType": "uint256",
          "name": "id",
          "type": "uint256"
        }
      ],
      "name": "approveApproverProposal",
      "outputs": [],
      "stateMutability": "nonpayable",
      "type": "function"
    },
    {
      "inputs": [
        {
          "internalType": "uint256",
          "name": "newQuorum",
          "type": "uint256"
        }
      ],
      "name": "proposeQuorum",
      "outputs": [],
      "stateMutability": "nonpayable",
      "type": "function"
    },
    {
      "inputs": [
        {
          "internalType": "uint256",
          "name": "id",
          "type": "uint256"
        }
      ],
      "name": "approveQuorumProposal",
      "outputs": [],
      "stateMutability": "nonpayable",
      "type": "function"
    },
    {
      "inputs": [
        {
          "internalType": "uint256",
          "name": "amount",
          "type": "uint256"
        },
        {
          "internalType": "address payable",
          "name": "to",
          "type": "address"
        }
      ],
      "name": "createTransfer",
      "outputs": [],
      "stateMutability": "nonpayable",
      "type": "function"
    },
    {
      "inputs": [
        {
          "internalType": "uint256",
          "name": "id",
          "type": "uint256"
        }
      ],
      "name": "approveTransfer",
      "outputs": [],
      "stateMutability": "nonpayable",
      "type": "function"
    }
  ],
  "bytecode": "0x60806040523480156200001157600080fd5b5060405162002e3e38038062002e3e8339818101604052810190620000379190620001e9565b81600090805190602001906200004f9291906200005f565b50806001819055505050620003a3565b828054828255906000526020600020908101928215620000db579160200282015b82811115620000da5782518260006101000a81548173ffffffffffffffffffffffffffffffffffffffff021916908373ffffffffffffffffffffffffffffffffffffffff1602179055509160200191906001019062000080565b5b509050620000ea9190620000ee565b5090565b5b8082111562000109576000816000905550600101620000ef565b5090565b6000620001246200011e8462000278565b6200024f565b905080838252602082019050828560208602820111156200014a57620001496200034f565b5b60005b858110156200017e578162000163888262000188565b8452602084019350602083019250506001810190506200014d565b5050509392505050565b60008151905062000199816200036f565b92915050565b600082601f830112620001b757620001b66200034a565b5b8151620001c98482602086016200010d565b91505092915050565b600081519050620001e38162000389565b92915050565b6000806040838503121562000203576200020262000359565b5b600083015167ffffffffffffffff81111562000224576200022362000354565b5b62000232858286016200019f565b92505060206200024585828601620001d2565b9150509250929050565b60006200025b6200026e565b9050620002698282620002e5565b919050565b6000604051905090565b600067ffffffffffffffff8211156200029657620002956200031b565b5b602082029050602081019050919050565b6000620002b482620002bb565b9050919050565b600073ffffffffffffffffffffffffffffffffffffffff82169050919050565b6000819050919050565b620002f0826200035e565b810181811067ffffffffffffffff821117156200031257620003116200031b565b5b80604052505050565b7f4e487b7100000000000000000000000000000000000000000000000000000000600052604160045260246000fd5b600080fd5b600080fd5b600080fd5b600080fd5b6000601f19601f8301169050919050565b6200037a81620002a7565b81146200038657600080fd5b50565b6200039481620002db565b8114620003a057600080fd5b50565b612a8b80620003b36000396000f3fe60806040526004361061010d5760003560e01c806378964a7b11610095578063d3650fb811610064578063d3650fb814610390578063d432e7b3146103cd578063ec94a8961461040e578063fcdfb83814610437578063ffabc6731461046057610114565b806378964a7b146102bc5780638bdfe8ef146102e55780639377d71114610326578063cacca4a01461036757610114565b80633f84203d116100dc5780633f84203d146101d55780634c12fa471461021257806368c9c73c1461023b5780636cb3e8ef146102665780636dd3c01c1461029157610114565b80631703a018146101195780632814c826146101445780632f65142c146101815780633948d2d9146101ac57610114565b3661011457005b600080fd5b34801561012557600080fd5b5061012e61049d565b60405161013b91906124e7565b60405180910390f35b34801561015057600080fd5b5061016b60048036038101906101669190611e1f565b6104a3565b60405161017891906123ec565b60405180910390f35b34801561018d57600080fd5b506101966104d2565b6040516101a391906123ca565b60405180910390f35b3480156101b857600080fd5b506101d360048036038101906101ce9190611e5f565b6105c0565b005b3480156101e157600080fd5b506101fc60048036038101906101f79190611e1f565b610a90565b60405161020991906123ec565b60405180910390f35b34801561021e57600080fd5b5061023960048036038101906102349190611e8c565b610abf565b005b34801561024757600080fd5b50610250610c69565b60405161025d9190612386565b60405180910390f35b34801561027257600080fd5b5061027b610d68565b6040516102889190612364565b60405180910390f35b34801561029d57600080fd5b506102a6610df6565b6040516102b391906123a8565b60405180910390f35b3480156102c857600080fd5b506102e360048036038101906102de9190611e5f565b610ea9565b005b3480156102f157600080fd5b5061030c60048036038101906103079190611e5f565b611331565b60405161031d959493929190612502565b60405180910390f35b34801561033257600080fd5b5061034d60048036038101906103489190611e5f565b6113b1565b60405161035e959493929190612555565b60405180910390f35b34801561037357600080fd5b5061038e60048036038101906103899190611e5f565b611424565b005b34801561039c57600080fd5b506103b760048036038101906103b29190611e5f565b6117b8565b6040516103c49190612349565b60405180910390f35b3480156103d957600080fd5b506103f460048036038101906103ef9190611e5f565b6117f7565b6040516104059594939291906125a8565b60405180910390f35b34801561041a57600080fd5b5061043560048036038101906104309190611ddf565b611857565b005b34801561044357600080fd5b5061045e60048036038101906104599190611e5f565b611bed565b005b34801561046c57600080fd5b5061048760048036038101906104829190611e1f565b611d5c565b60405161049491906123ec565b60405180910390f35b60015481565b60076020528160005260406000206020528060005260406000206000915091509054906101000a900460ff1681565b60606002805480602002602001604051908101604052809291908181526020016000905b828210156105b757838290600052602060002090600502016040518060a001604052908160008201548152602001600182015481526020016002820160009054906101000a900473ffffffffffffffffffffffffffffffffffffffff1673ffffffffffffffffffffffffffffffffffffffff1673ffffffffffffffffffffffffffffffffffffffff168152602001600382015481526020016004820160009054906101000a900460ff161515151581525050815260200190600101906104f6565b50505050905090565b6000805b60008054905081101561065b573373ffffffffffffffffffffffffffffffffffffffff16600082815481106105fc576105fb6127c2565b5b9060005260206000200160009054906101000a900473ffffffffffffffffffffffffffffffffffffffff1673ffffffffffffffffffffffffffffffffffffffff16141561064857600191505b80806106539061274a565b9150506105c4565b50600115158115151461066d57600080fd5b6000151560038381548110610685576106846127c2565b5b906000526020600020906004020160030160009054906101000a900460ff161515146106e6576040517f08c379a00000000000000000000000000000000000000000000000000000000081526004016106dd906124a7565b60405180910390fd5b60001515600383815481106106fe576106fd6127c2565b5b906000526020600020906004020160030160019054906101000a900460ff1615151461075f576040517f08c379a000000000000000000000000000000000000000000000000000000000815260040161075690612427565b60405180910390fd5b60008054905060038381548110610779576107786127c2565b5b906000526020600020906004020160010154116107cb576040517f08c379a00000000000000000000000000000000000000000000000000000000081526004016107c290612427565b60405180910390fd5b60001515600660003373ffffffffffffffffffffffffffffffffffffffff1673ffffffffffffffffffffffffffffffffffffffff168152602001908152602001600020600084815260200190815260200160002060009054906101000a900460ff1615151461086f576040517f08c379a000000000000000000000000000000000000000000000000000000000815260040161086690612407565b60405180910390fd5b60001515600660003373ffffffffffffffffffffffffffffffffffffffff1673ffffffffffffffffffffffffffffffffffffffff168152602001908152602001600020600084815260200190815260200160002060009054906101000a900460ff16151514610913576040517f08c379a000000000000000000000000000000000000000000000000000000000815260040161090a90612407565b60405180910390fd5b60011515600660003373ffffffffffffffffffffffffffffffffffffffff1673ffffffffffffffffffffffffffffffffffffffff168152602001908152602001600020600084815260200190815260200160002060009054906101000a9050505060038281548110610988576109876127c2565b5b906000526020600020906004020160020160008154809291906109aa9061274a565b9190505550600154600383815481106109c6576109c56127c2565b5b90600052602060002090600402016002015410610a8c576001600383815481106109f3576109f26127c2565b5b906000526020600020906004020160030160006101000a81548160ff021916908315150217905550600160038381548110610a3157610a306127c2565b5b906000526020600020906004020160030160016101000a81548160ff021916908315150217905550600060038381548110610a6f57610a6e6127c2565b5b906000526020600020906004020160010154905080600181905550505b5050565b60066020528160005260406000206020528060005260406000206000915091509054906101000a900460ff1681565b6000805b600080549050811015610b5a573373ffffffffffffffffffffffffffffffffffffffff1660008281548110610afb57610afa6127c2565b5b9060005260206000200160009054906101000a900473ffffffffffffffffffffffffffffffffffffffff1673ffffffffffffffffffffffffffffffffffffffff161415610b4757600191505b8080610b529061274a565b915050610ac3565b506001151581151514610b6c57600080fd5b60026040518060a0016040528060028054905081526020018581526020018473ffffffffffffffffffffffffffffffffffffffff16815260200160008152602001600015158152509080600181540180825580915050600190039060005260206000209060050201600090919091909150600082015181600001556020820151816001015560408201518160020160006101000a81548173ffffffffffffffffffffffffffffffffffffffff021916908373ffffffffffffffffffffffffffffffffffffffff1602179055506060820151816003015560808201518160040160006101000a81548160ff0219169083151502179055505050505050565b60606004805480602002602001604051908101604052809291908181526020016000905b82821015610d5f57838290600052602060002090600402016040518060a0016040529081600082015481526020016001820160009054906101000a900473ffffffffffffffffffffffffffffffffffffffff1673ffffffffffffffffffffffffffffffffffffffff1673ffffffffffffffffffffffffffffffffffffffff1681526020016001820160149054906101000a900460ff16151515158152602001600282015481526020016003820160009054906101000a900460ff16151515158152505081526020019060010190610c8d565b50505050905090565b60606000805480602002602001604051908101604052809291908181526020018280548015610dec57602002820191906000526020600020905b8160009054906101000a900473ffffffffffffffffffffffffffffffffffffffff1673ffffffffffffffffffffffffffffffffffffffff1681526020019060010190808311610da2575b5050505050905090565b60606003805480602002602001604051908101604052809291908181526020016000905b82821015610ea057838290600052602060002090600402016040518060a00160405290816000820154815260200160018201548152602001600282015481526020016003820160009054906101000a900460ff161515151581526020016003820160019054906101000a900460ff16151515158152505081526020019060010190610e1a565b50505050905090565b6000805b600080549050811015610f44573373ffffffffffffffffffffffffffffffffffffffff1660008281548110610ee557610ee46127c2565b5b9060005260206000200160009054906101000a900473ffffffffffffffffffffffffffffffffffffffff1673ffffffffffffffffffffffffffffffffffffffff161415610f3157600191505b8080610f3c9061274a565b915050610ead565b506001151581151514610f5657600080fd5b6000151560048381548110610f6e57610f6d6127c2565b5b906000526020600020906004020160030160009054906101000a900460ff16151514610fcf576040517f08c379a0000000000000000000000000000000000000000000000000000000008152600401610fc690612467565b60405180910390fd5b60001515600760003373ffffffffffffffffffffffffffffffffffffffff1673ffffffffffffffffffffffffffffffffffffffff168152602001908152602001600020600084815260200190815260200160002060009054906101000a900460ff16151514611073576040517f08c379a000000000000000000000000000000000000000000000000000000000815260040161106a90612447565b60405180910390fd5b60011515600760003373ffffffffffffffffffffffffffffffffffffffff1673ffffffffffffffffffffffffffffffffffffffff168152602001908152602001600020600084815260200190815260200160002060009054906101000a90505050600482815481106110e8576110e76127c2565b5b9060005260206000209060040201600201600081548092919061110a9061274a565b919050555060015460048381548110611126576111256127c2565b5b9060005260206000209060040201600201541061132d57600160048381548110611153576111526127c2565b5b906000526020600020906004020160030160006101000a81548160ff0219169083151502179055506001151560048381548110611193576111926127c2565b5b906000526020600020906004020160010160149054906101000a900460ff1615151415611267576000600483815481106111d0576111cf6127c2565b5b906000526020600020906004020160010160009054906101000a900473ffffffffffffffffffffffffffffffffffffffff169080600181540180825580915050600190039060005260206000200160009091909190916101000a81548173ffffffffffffffffffffffffffffffffffffffff021916908373ffffffffffffffffffffffffffffffffffffffff16021790555061132c565b600015156004838154811061127f5761127e6127c2565b5b906000526020600020906004020160010160149054906101000a900460ff161515141561132b57600482815481106112ba576112b96127c2565b5b90600052602060002090600402016000808201600090556001820160006101000a81549073ffffffffffffffffffffffffffffffffffffffff02191690556001820160146101000a81549060ff021916905560028201600090556003820160006101000a81549060ff021916905550505b5b5b5050565b6004818154811061134157600080fd5b90600052602060002090600402016000915090508060000154908060010160009054906101000a900473ffffffffffffffffffffffffffffffffffffffff16908060010160149054906101000a900460ff16908060020154908060030160009054906101000a900460ff16905085565b600281815481106113c157600080fd5b90600052602060002090600502016000915090508060000154908060010154908060020160009054906101000a900473ffffffffffffffffffffffffffffffffffffffff16908060030154908060040160009054906101000a900460ff16905085565b6000805b6000805490508110156114bf573373ffffffffffffffffffffffffffffffffffffffff16600082815481106114605761145f6127c2565b5b9060005260206000200160009054906101000a900473ffffffffffffffffffffffffffffffffffffffff1673ffffffffffffffffffffffffffffffffffffffff1614156114ac57600191505b80806114b79061274a565b915050611428565b5060011515811515146114d157600080fd5b60001515600283815481106114e9576114e86127c2565b5b906000526020600020906005020160040160009054906101000a900460ff1615151461154a576040517f08c379a0000000000000000000000000000000000000000000000000000000008152600401611541906124c7565b60405180910390fd5b60001515600560003373ffffffffffffffffffffffffffffffffffffffff1673ffffffffffffffffffffffffffffffffffffffff168152602001908152602001600020600084815260200190815260200160002060009054906101000a900460ff161515146115ee576040517f08c379a00000000000000000000000000000000000000000000000000000000081526004016115e590612487565b60405180910390fd5b60011515600560003373ffffffffffffffffffffffffffffffffffffffff1673ffffffffffffffffffffffffffffffffffffffff168152602001908152602001600020600084815260200190815260200160002060009054906101000a9050505060028281548110611663576116626127c2565b5b906000526020600020906005020160030160008154809291906116859061274a565b9190505550600154600283815481106116a1576116a06127c2565b5b906000526020600020906005020160030154106117b4576001600283815481106116ce576116cd6127c2565b5b906000526020600020906005020160040160006101000a81548160ff02191690831515021790555060006002838154811061170c5761170b6127c2565b5b906000526020600020906005020160020160009054906101000a900473ffffffffffffffffffffffffffffffffffffffff169050600060028481548110611756576117556127c2565b5b90600052602060002090600502016001015490508173ffffffffffffffffffffffffffffffffffffffff166108fc829081150290604051600060405180830381858888f193505050501580156117b0573d6000803e3d6000fd5b5050505b5050565b600081815481106117c857600080fd5b906000526020600020016000915054906101000a900473ffffffffffffffffffffffffffffffffffffffff1681565b6003818154811061180757600080fd5b90600052602060002090600402016000915090508060000154908060010154908060020154908060030160009054906101000a900460ff16908060030160019054906101000a900460ff16905085565b6000805b6000805490508110156118f2573373ffffffffffffffffffffffffffffffffffffffff1660008281548110611893576118926127c2565b5b9060005260206000200160009054906101000a900473ffffffffffffffffffffffffffffffffffffffff1673ffffffffffffffffffffffffffffffffffffffff1614156118df57600191505b80806118ea9061274a565b91505061185b565b50600115158115151461190457600080fd5b6000805b60008054905081101561199f578473ffffffffffffffffffffffffffffffffffffffff16600082815481106119405761193f6127c2565b5b9060005260206000200160009054906101000a900473ffffffffffffffffffffffffffffffffffffffff1673ffffffffffffffffffffffffffffffffffffffff16141561198c57600191505b80806119979061274a565b915050611908565b508280156119ab575080155b15611ac55760046040518060a0016040528060048054905081526020018673ffffffffffffffffffffffffffffffffffffffff1681526020018515158152602001600081526020016000151581525090806001815401808255809150506001900390600052602060002090600402016000909190919091506000820151816000015560208201518160010160006101000a81548173ffffffffffffffffffffffffffffffffffffffff021916908373ffffffffffffffffffffffffffffffffffffffff16021790555060408201518160010160146101000a81548160ff0219169083151502179055506060820151816002015560808201518160030160006101000a81548160ff0219169083151502179055505050611be7565b82158015611ad05750805b15611be65760046040518060a0016040528060048054905081526020018673ffffffffffffffffffffffffffffffffffffffff1681526020018515158152602001600081526020016000151581525090806001815401808255809150506001900390600052602060002090600402016000909190919091506000820151816000015560208201518160010160006101000a81548173ffffffffffffffffffffffffffffffffffffffff021916908373ffffffffffffffffffffffffffffffffffffffff16021790555060408201518160010160146101000a81548160ff0219169083151502179055506060820151816002015560808201518160030160006101000a81548160ff02191690831515021790555050505b5b50505050565b6000805b600080549050811015611c88573373ffffffffffffffffffffffffffffffffffffffff1660008281548110611c2957611c286127c2565b5b9060005260206000200160009054906101000a900473ffffffffffffffffffffffffffffffffffffffff1673ffffffffffffffffffffffffffffffffffffffff161415611c7557600191505b8080611c809061274a565b915050611bf1565b506001151581151514611c9a57600080fd5b60036040518060a0016040528060038054905081526020018481526020016000815260200160001515815260200160001515815250908060018154018082558091505060019003906000526020600020906004020160009091909190915060008201518160000155602082015181600101556040820151816002015560608201518160030160006101000a81548160ff02191690831515021790555060808201518160030160016101000a81548160ff02191690831515021790555050505050565b60056020528160005260406000206020528060005260406000206000915091509054906101000a900460ff1681565b600081359050611d9a816129f9565b92915050565b600081359050611daf81612a10565b92915050565b600081359050611dc481612a27565b92915050565b600081359050611dd981612a3e565b92915050565b60008060408385031215611df657611df56127f1565b5b6000611e0485828601611d8b565b9250506020611e1585828601611db5565b9150509250929050565b60008060408385031215611e3657611e356127f1565b5b6000611e4485828601611d8b565b9250506020611e5585828601611dca565b9150509250929050565b600060208284031215611e7557611e746127f1565b5b6000611e8384828501611dca565b91505092915050565b60008060408385031215611ea357611ea26127f1565b5b6000611eb185828601611dca565b9250506020611ec285828601611da0565b9150509250929050565b6000611ed88383611f4a565b60208301905092915050565b6000611ef083836121f3565b60a08301905092915050565b6000611f08838361225b565b60a08301905092915050565b6000611f2083836122c3565b60a08301905092915050565b611f3581612702565b82525050565b611f4481612702565b82525050565b611f53816126f0565b82525050565b611f62816126f0565b82525050565b6000611f738261263b565b611f7d818561269b565b9350611f88836125fb565b8060005b83811015611fb9578151611fa08882611ecc565b9750611fab83612667565b925050600181019050611f8c565b5085935050505092915050565b6000611fd182612646565b611fdb81856126ac565b9350611fe68361260b565b8060005b83811015612017578151611ffe8882611ee4565b975061200983612674565b925050600181019050611fea565b5085935050505092915050565b600061202f82612651565b61203981856126bd565b93506120448361261b565b8060005b8381101561207557815161205c8882611efc565b975061206783612681565b925050600181019050612048565b5085935050505092915050565b600061208d8261265c565b61209781856126ce565b93506120a28361262b565b8060005b838110156120d35781516120ba8882611f14565b97506120c58361268e565b9250506001810190506120a6565b5085935050505092915050565b6120e981612714565b82525050565b6120f881612714565b82525050565b600061210b602d836126df565b9150612116826127f6565b604082019050919050565b600061212e6020836126df565b915061213982612845565b602082019050919050565b60006121516030836126df565b915061215c8261286e565b604082019050919050565b60006121746031836126df565b915061217f826128bd565b604082019050919050565b60006121976026836126df565b91506121a28261290c565b604082019050919050565b60006121ba602f836126df565b91506121c58261295b565b604082019050919050565b60006121dd6025836126df565b91506121e8826129aa565b604082019050919050565b60a082016000820151612209600085018261232b565b50602082015161221c6020850182611f4a565b50604082015161222f60408501826120e0565b506060820151612242606085018261232b565b50608082015161225560808501826120e0565b50505050565b60a082016000820151612271600085018261232b565b506020820151612284602085018261232b565b506040820151612297604085018261232b565b5060608201516122aa60608501826120e0565b5060808201516122bd60808501826120e0565b50505050565b60a0820160008201516122d9600085018261232b565b5060208201516122ec602085018261232b565b5060408201516122ff6040850182611f2c565b506060820151612312606085018261232b565b50608082015161232560808501826120e0565b50505050565b61233481612740565b82525050565b61234381612740565b82525050565b600060208201905061235e6000830184611f59565b92915050565b6000602082019050818103600083015261237e8184611f68565b905092915050565b600060208201905081810360008301526123a08184611fc6565b905092915050565b600060208201905081810360008301526123c28184612024565b905092915050565b600060208201905081810360008301526123e48184612082565b905092915050565b600060208201905061240160008301846120ef565b92915050565b60006020820190508181036000830152612420816120fe565b9050919050565b6000602082019050818103600083015261244081612121565b9050919050565b6000602082019050818103600083015261246081612144565b9050919050565b6000602082019050818103600083015261248081612167565b9050919050565b600060208201905081810360008301526124a08161218a565b9050919050565b600060208201905081810360008301526124c0816121ad565b9050919050565b600060208201905081810360008301526124e0816121d0565b9050919050565b60006020820190506124fc600083018461233a565b92915050565b600060a082019050612517600083018861233a565b6125246020830187611f59565b61253160408301866120ef565b61253e606083018561233a565b61254b60808301846120ef565b9695505050505050565b600060a08201905061256a600083018861233a565b612577602083018761233a565b6125846040830186611f3b565b612591606083018561233a565b61259e60808301846120ef565b9695505050505050565b600060a0820190506125bd600083018861233a565b6125ca602083018761233a565b6125d7604083018661233a565b6125e460608301856120ef565b6125f160808301846120ef565b9695505050505050565b6000819050602082019050919050565b6000819050602082019050919050565b6000819050602082019050919050565b6000819050602082019050919050565b600081519050919050565b600081519050919050565b600081519050919050565b600081519050919050565b6000602082019050919050565b6000602082019050919050565b6000602082019050919050565b6000602082019050919050565b600082825260208201905092915050565b600082825260208201905092915050565b600082825260208201905092915050565b600082825260208201905092915050565b600082825260208201905092915050565b60006126fb82612720565b9050919050565b600061270d82612720565b9050919050565b60008115159050919050565b600073ffffffffffffffffffffffffffffffffffffffff82169050919050565b6000819050919050565b600061275582612740565b91507fffffffffffffffffffffffffffffffffffffffffffffffffffffffffffffffff82141561278857612787612793565b5b600182019050919050565b7f4e487b7100000000000000000000000000000000000000000000000000000000600052601160045260246000fd5b7f4e487b7100000000000000000000000000000000000000000000000000000000600052603260045260246000fd5b600080fd5b7f4572726f723a2043616e6e6f7420617070726f766520612071756f72756d207060008201527f726f706f73616c20747769636500000000000000000000000000000000000000602082015250565b7f4572726f723a2051756f72756d2070726f706f73616c2068617320656e646564600082015250565b7f4572726f723a2043616e6e6f7420617070726f766520616e20417070726f766560008201527f722070726f706f73616c20747769636500000000000000000000000000000000602082015250565b7f4572726f723a20417070726f7665722070726f706f73616c732068617320616c60008201527f7265616479206265656e20706173736564000000000000000000000000000000602082015250565b7f4572726f723a2043616e6e6f7420617070726f76652061207472616e7366657260008201527f2074776963650000000000000000000000000000000000000000000000000000602082015250565b7f4572726f723a2051756f72756d2070726f706f73616c732068617320616c726560008201527f616479206265656e207061737365640000000000000000000000000000000000602082015250565b7f4572726f723a205472616e736665722068617320616c7265616479206265656e60008201527f2073656e74000000000000000000000000000000000000000000000000000000602082015250565b612a02816126f0565b8114612a0d57600080fd5b50565b612a1981612702565b8114612a2457600080fd5b50565b612a3081612714565b8114612a3b57600080fd5b50565b612a4781612740565b8114612a5257600080fd5b5056fea2646970667358221220362e19ba7b7575c199487090d8f1ec8c80ac58a013f379aea0c5acb9ff6bfc5664736f6c63430008060033",
  "immutableReferences": {},
  "source": "pragma solidity 0.8.6;\n\ncontract ChainwaveMultiSigWallet {\n    address[] public approvers;\n    uint256 public quorum;\n\n    struct Transfer {\n        uint256 id;\n        uint256 amount;\n        address payable to;\n        uint256 approvals;\n        bool sent;\n    }\n\n    Transfer[] public transfers;\n\n    struct QuorumProposal {\n        uint256 id;\n        uint256 quorum;\n        uint256 approvals;\n        bool passed;\n        bool ended;\n    }\n\n    QuorumProposal[] public quorumProposals;\n\n    struct ApproverProposal {\n        uint256 id;\n        address newApprover;\n        bool adding;\n        uint256 approvals;\n        bool passed;\n    }\n\n    ApproverProposal[] public approverProposals;\n\n    mapping(address => mapping(uint256 => bool)) public approvals;\n    mapping(address => mapping(uint256 => bool)) public quorumApprovals;\n    mapping(address => mapping(uint256 => bool)) public approverApprovals;\n\n    /////////////EVENTS\n\n    constructor(address[] memory _approvers, uint256 _quorum) public {\n        approvers = _approvers;\n        quorum = _quorum;\n    }\n\n    function getApprovers() external view returns (address[] memory) {\n        return approvers;\n    }\n\n    function getTransfers() external view returns (Transfer[] memory) {\n        return transfers;\n    }\n\n    function getQuorumProposals()\n        external\n        view\n        returns (QuorumProposal[] memory)\n    {\n        return quorumProposals;\n    }\n\n    function getApproverProposals()\n        external\n        view\n        returns (ApproverProposal[] memory)\n    {\n        return approverProposals;\n    }\n\n    function proposeApproverChange(address approverAddr, bool adding)\n        external\n        onlyApprover\n    {\n        bool approverIsPresent = false;\n\n        for (uint256 i = 0; i < approvers.length; i++) {\n            if (approvers[i] == approverAddr) {\n                approverIsPresent = true;\n            }\n        }\n\n        if (adding && !approverIsPresent) {\n            approverProposals.push(\n                ApproverProposal(\n                    approverProposals.length,\n                    approverAddr,\n                    adding,\n                    0,\n                    false\n                )\n            );\n        } else if (!adding && approverIsPresent) {\n            approverProposals.push(\n                ApproverProposal(\n                    approverProposals.length,\n                    approverAddr,\n                    adding,\n                    0,\n                    false\n                )\n            );\n        }\n    }\n\n    function approveApproverProposal(uint256 id) external onlyApprover {\n        require(\n            approverProposals[id].passed == false,\n            'Error: Approver proposals has already been passed'\n        );\n        require(\n            approverApprovals[msg.sender][id] == false,\n            'Error: Cannot approve an Approver proposal twice'\n        );\n\n        approverApprovals[msg.sender][id] == true;\n        approverProposals[id].approvals++;\n\n        if (approverProposals[id].approvals >= quorum) {\n            approverProposals[id].passed = true;\n\n            //if passed, we get the address and the action (add or remove) and then do it\n            if (approverProposals[id].adding == true) {\n                approvers.push(approverProposals[id].newApprover);\n            } else if (approverProposals[id].adding == false) {\n                delete approverProposals[id];\n            }\n        }\n    }\n\n    function proposeQuorum(uint256 newQuorum) external onlyApprover {\n        quorumProposals.push(\n            QuorumProposal(quorumProposals.length, newQuorum, 0, false, false)\n        );\n    }\n\n    function approveQuorumProposal(uint256 id) external onlyApprover {\n        require(\n            quorumProposals[id].passed == false,\n            'Error: Quorum proposals has already been passed'\n        );\n\n        require(\n            quorumProposals[id].ended == false,\n            'Error: Quorum proposal has ended'\n        );\n\n        require(\n            quorumProposals[id].quorum > approvers.length,\n            'Error: Quorum proposal has ended'\n        );\n\n        require(\n            quorumApprovals[msg.sender][id] == false,\n            'Error: Cannot approve a quorum proposal twice'\n        );\n\n        require(\n            quorumApprovals[msg.sender][id] == false,\n            'Error: Cannot approve a quorum proposal twice'\n        );\n\n        quorumApprovals[msg.sender][id] == true;\n        quorumProposals[id].approvals++;\n\n        if (quorumProposals[id].approvals >= quorum) {\n            quorumProposals[id].passed = true;\n            quorumProposals[id].ended = true;\n            uint256 newQuorum = quorumProposals[id].quorum;\n            quorum = newQuorum;\n        }\n    }\n\n    function createTransfer(uint256 amount, address payable to)\n        external\n        onlyApprover\n    {\n        transfers.push(Transfer(transfers.length, amount, to, 0, false));\n    }\n\n    function approveTransfer(uint256 id) external onlyApprover {\n        require(\n            transfers[id].sent == false,\n            'Error: Transfer has already been sent'\n        );\n        require(\n            approvals[msg.sender][id] == false,\n            'Error: Cannot approve a transfer twice'\n        );\n\n        approvals[msg.sender][id] == true;\n        transfers[id].approvals++;\n\n        if (transfers[id].approvals >= quorum) {\n            transfers[id].sent = true;\n            address payable to = transfers[id].to;\n            uint256 amount = transfers[id].amount;\n            to.transfer(amount);\n        }\n    }\n\n    receive() external payable {}\n\n    modifier onlyApprover() {\n        bool allowed = false;\n        for (uint256 i = 0; i < approvers.length; i++) {\n            if (approvers[i] == msg.sender) {\n                allowed = true;\n            }\n        }\n        require(allowed == true);\n        _;\n    }\n}\n",
  "sourcePath": "/Users/benbrown/Desktop/dev/chainwave/chainwave-multisignature-wallet/contracts/ChainwaveMultiSigWallet.sol",
  "compiler": {
    "name": "solc",
    "version": "0.8.6+commit.11564f7e.Emscripten.clang"
  },
  "schemaVersion": "3.4.2",
  "updatedAt": "2021-08-04T04:03:54.206Z",
  "networkType": "ethereum",
  "devdoc": {
    "kind": "dev",
    "methods": {},
    "version": 1
  },
  "userdoc": {
    "kind": "user",
    "methods": {},
    "version": 1
  }
}