{
  "contractName": "ChainwaveMultiSigWallet",
  "abi": [
    {
      "inputs": [
        {
          "internalType": "address[]",
          "name": "_approvers",
          "type": "address[]"
        },
        {
          "internalType": "uint256",
          "name": "_quorum",
          "type": "uint256"
        }
      ],
      "stateMutability": "nonpayable",
      "type": "constructor"
    },
    {
      "inputs": [
        {
          "internalType": "address",
          "name": "",
          "type": "address"
        },
        {
          "internalType": "uint256",
          "name": "",
          "type": "uint256"
        }
      ],
      "name": "approvals",
      "outputs": [
        {
          "internalType": "bool",
          "name": "",
          "type": "bool"
        }
      ],
      "stateMutability": "view",
      "type": "function",
      "constant": true
    },
    {
      "inputs": [
        {
          "internalType": "uint256",
          "name": "",
          "type": "uint256"
        }
      ],
      "name": "approvers",
      "outputs": [
        {
          "internalType": "address",
          "name": "",
          "type": "address"
        }
      ],
      "stateMutability": "view",
      "type": "function",
      "constant": true
    },
    {
      "inputs": [],
      "name": "quorum",
      "outputs": [
        {
          "internalType": "uint256",
          "name": "",
          "type": "uint256"
        }
      ],
      "stateMutability": "view",
      "type": "function",
      "constant": true
    },
    {
      "inputs": [
        {
          "internalType": "address",
          "name": "",
          "type": "address"
        },
        {
          "internalType": "uint256",
          "name": "",
          "type": "uint256"
        }
      ],
      "name": "quorumApprovals",
      "outputs": [
        {
          "internalType": "bool",
          "name": "",
          "type": "bool"
        }
      ],
      "stateMutability": "view",
      "type": "function",
      "constant": true
    },
    {
      "inputs": [
        {
          "internalType": "uint256",
          "name": "",
          "type": "uint256"
        }
      ],
      "name": "quorumProposals",
      "outputs": [
        {
          "internalType": "uint256",
          "name": "id",
          "type": "uint256"
        },
        {
          "internalType": "uint256",
          "name": "quorum",
          "type": "uint256"
        },
        {
          "internalType": "uint256",
          "name": "approvals",
          "type": "uint256"
        },
        {
          "internalType": "bool",
          "name": "passed",
          "type": "bool"
        }
      ],
      "stateMutability": "view",
      "type": "function",
      "constant": true
    },
    {
      "inputs": [
        {
          "internalType": "uint256",
          "name": "",
          "type": "uint256"
        }
      ],
      "name": "transfers",
      "outputs": [
        {
          "internalType": "uint256",
          "name": "id",
          "type": "uint256"
        },
        {
          "internalType": "uint256",
          "name": "amount",
          "type": "uint256"
        },
        {
          "internalType": "address payable",
          "name": "to",
          "type": "address"
        },
        {
          "internalType": "uint256",
          "name": "approvals",
          "type": "uint256"
        },
        {
          "internalType": "bool",
          "name": "sent",
          "type": "bool"
        }
      ],
      "stateMutability": "view",
      "type": "function",
      "constant": true
    },
    {
      "stateMutability": "payable",
      "type": "receive",
      "payable": true
    },
    {
      "inputs": [],
      "name": "getApprovers",
      "outputs": [
        {
          "internalType": "address[]",
          "name": "",
          "type": "address[]"
        }
      ],
      "stateMutability": "view",
      "type": "function",
      "constant": true
    },
    {
      "inputs": [],
      "name": "getTransfers",
      "outputs": [
        {
          "components": [
            {
              "internalType": "uint256",
              "name": "id",
              "type": "uint256"
            },
            {
              "internalType": "uint256",
              "name": "amount",
              "type": "uint256"
            },
            {
              "internalType": "address payable",
              "name": "to",
              "type": "address"
            },
            {
              "internalType": "uint256",
              "name": "approvals",
              "type": "uint256"
            },
            {
              "internalType": "bool",
              "name": "sent",
              "type": "bool"
            }
          ],
          "internalType": "struct ChainwaveMultiSigWallet.Transfer[]",
          "name": "",
          "type": "tuple[]"
        }
      ],
      "stateMutability": "view",
      "type": "function",
      "constant": true
    },
    {
      "inputs": [],
      "name": "getQuorumProposals",
      "outputs": [
        {
          "components": [
            {
              "internalType": "uint256",
              "name": "id",
              "type": "uint256"
            },
            {
              "internalType": "uint256",
              "name": "quorum",
              "type": "uint256"
            },
            {
              "internalType": "uint256",
              "name": "approvals",
              "type": "uint256"
            },
            {
              "internalType": "bool",
              "name": "passed",
              "type": "bool"
            }
          ],
          "internalType": "struct ChainwaveMultiSigWallet.QuorumProposal[]",
          "name": "",
          "type": "tuple[]"
        }
      ],
      "stateMutability": "view",
      "type": "function",
      "constant": true
    },
    {
      "inputs": [
        {
          "internalType": "uint256",
          "name": "newQuorum",
          "type": "uint256"
        }
      ],
      "name": "proposeQuorum",
      "outputs": [],
      "stateMutability": "nonpayable",
      "type": "function"
    },
    {
      "inputs": [
        {
          "internalType": "uint256",
          "name": "id",
          "type": "uint256"
        }
      ],
      "name": "approveQuorumProposal",
      "outputs": [],
      "stateMutability": "nonpayable",
      "type": "function"
    },
    {
      "inputs": [
        {
          "internalType": "uint256",
          "name": "amount",
          "type": "uint256"
        },
        {
          "internalType": "address payable",
          "name": "to",
          "type": "address"
        }
      ],
      "name": "createTransfer",
      "outputs": [],
      "stateMutability": "nonpayable",
      "type": "function"
    },
    {
      "inputs": [
        {
          "internalType": "uint256",
          "name": "id",
          "type": "uint256"
        }
      ],
      "name": "approveTransfer",
      "outputs": [],
      "stateMutability": "nonpayable",
      "type": "function"
    }
  ],
  "bytecode": "0x60806040523480156200001157600080fd5b5060405162001b7538038062001b758339818101604052620000379190810190620001ef565b81600090805190602001906200004f9291906200005f565b5080600181905550505062000312565b828054828255906000526020600020908101928215620000db579160200282015b82811115620000da5782518260006101000a81548173ffffffffffffffffffffffffffffffffffffffff021916908373ffffffffffffffffffffffffffffffffffffffff1602179055509160200191906001019062000080565b5b509050620000ea9190620000ee565b5090565b6200013191905b808211156200012d57600081816101000a81549073ffffffffffffffffffffffffffffffffffffffff021916905550600101620000f5565b5090565b90565b6000815190506200014581620002de565b92915050565b600082601f8301126200015d57600080fd5b8151620001746200016e8262000277565b62000249565b915081818352602084019350602081019050838560208402820111156200019a57600080fd5b60005b83811015620001ce5781620001b3888262000134565b8452602084019350602083019250506001810190506200019d565b5050505092915050565b600081519050620001e981620002f8565b92915050565b600080604083850312156200020357600080fd5b600083015167ffffffffffffffff8111156200021e57600080fd5b6200022c858286016200014b565b92505060206200023f85828601620001d8565b9150509250929050565b6000604051905081810181811067ffffffffffffffff821117156200026d57600080fd5b8060405250919050565b600067ffffffffffffffff8211156200028f57600080fd5b602082029050602081019050919050565b6000620002ad82620002b4565b9050919050565b600073ffffffffffffffffffffffffffffffffffffffff82169050919050565b6000819050919050565b620002e981620002a0565b8114620002f557600080fd5b50565b6200030381620002d4565b81146200030f57600080fd5b50565b61185380620003226000396000f3fe6080604052600436106100c65760003560e01c80636dd3c01c1161007f578063d3650fb811610059578063d3650fb814610277578063d432e7b3146102b4578063fcdfb838146102f4578063ffabc6731461031d576100cd565b80636dd3c01c146101e25780639377d7111461020d578063cacca4a01461024e576100cd565b80631703a018146100d25780632f65142c146100fd5780633948d2d9146101285780633f84203d146101515780634c12fa471461018e5780636cb3e8ef146101b7576100cd565b366100cd57005b600080fd5b3480156100de57600080fd5b506100e761035a565b6040516100f4919061160f565b60405180910390f35b34801561010957600080fd5b50610112610360565b60405161011f9190611552565b60405180910390f35b34801561013457600080fd5b5061014f600480360361014a919081019061105f565b61044e565b005b34801561015d57600080fd5b5061017860048036036101739190810190611023565b610728565b6040516101859190611574565b60405180910390f35b34801561019a57600080fd5b506101b560048036036101b09190810190611088565b610757565b005b3480156101c357600080fd5b506101cc6108fb565b6040516101d9919061150e565b60405180910390f35b3480156101ee57600080fd5b506101f7610989565b6040516102049190611530565b60405180910390f35b34801561021957600080fd5b50610234600480360361022f919081019061105f565b610a21565b60405161024595949392919061162a565b60405180910390f35b34801561025a57600080fd5b506102756004803603610270919081019061105f565b610a91565b005b34801561028357600080fd5b5061029e6004803603610299919081019061105f565b610def565b6040516102ab91906114f3565b60405180910390f35b3480156102c057600080fd5b506102db60048036036102d6919081019061105f565b610e2b565b6040516102eb949392919061167d565b60405180910390f35b34801561030057600080fd5b5061031b6004803603610316919081019061105f565b610e75565b005b34801561032957600080fd5b50610344600480360361033f9190810190611023565b610fb5565b6040516103519190611574565b60405180910390f35b60015481565b60606002805480602002602001604051908101604052809291908181526020016000905b8282101561044557838290600052602060002090600502016040518060a001604052908160008201548152602001600182015481526020016002820160009054906101000a900473ffffffffffffffffffffffffffffffffffffffff1673ffffffffffffffffffffffffffffffffffffffff1673ffffffffffffffffffffffffffffffffffffffff168152602001600382015481526020016004820160009054906101000a900460ff16151515158152505081526020019060010190610384565b50505050905090565b600080905060008090505b6000805490508110156104e3573373ffffffffffffffffffffffffffffffffffffffff166000828154811061048a57fe5b9060005260206000200160009054906101000a900473ffffffffffffffffffffffffffffffffffffffff1673ffffffffffffffffffffffffffffffffffffffff1614156104d657600191505b8080600101915050610459565b5060011515811515146104f557600080fd5b600015156003838154811061050657fe5b906000526020600020906004020160030160009054906101000a900460ff16151514610567576040517f08c379a000000000000000000000000000000000000000000000000000000000815260040161055e906115cf565b60405180910390fd5b60001515600560003373ffffffffffffffffffffffffffffffffffffffff1673ffffffffffffffffffffffffffffffffffffffff168152602001908152602001600020600084815260200190815260200160002060009054906101000a900460ff1615151461060b576040517f08c379a00000000000000000000000000000000000000000000000000000000081526004016106029061158f565b60405180910390fd5b60011515600560003373ffffffffffffffffffffffffffffffffffffffff1673ffffffffffffffffffffffffffffffffffffffff168152602001908152602001600020600084815260200190815260200160002060009054906101000a905050506003828154811061067957fe5b906000526020600020906004020160020160008154809291906001019190505550600154600383815481106106aa57fe5b90600052602060002090600402016002015410610724576001600383815481106106d057fe5b906000526020600020906004020160030160006101000a81548160ff02191690831515021790555060006003838154811061070757fe5b906000526020600020906004020160010154905080600181905550505b5050565b60056020528160005260406000206020528060005260406000206000915091509054906101000a900460ff1681565b600080905060008090505b6000805490508110156107ec573373ffffffffffffffffffffffffffffffffffffffff166000828154811061079357fe5b9060005260206000200160009054906101000a900473ffffffffffffffffffffffffffffffffffffffff1673ffffffffffffffffffffffffffffffffffffffff1614156107df57600191505b8080600101915050610762565b5060011515811515146107fe57600080fd5b60026040518060a0016040528060028054905081526020018581526020018473ffffffffffffffffffffffffffffffffffffffff16815260200160008152602001600015158152509080600181540180825580915050600190039060005260206000209060050201600090919091909150600082015181600001556020820151816001015560408201518160020160006101000a81548173ffffffffffffffffffffffffffffffffffffffff021916908373ffffffffffffffffffffffffffffffffffffffff1602179055506060820151816003015560808201518160040160006101000a81548160ff0219169083151502179055505050505050565b6060600080548060200260200160405190810160405280929190818152602001828054801561097f57602002820191906000526020600020905b8160009054906101000a900473ffffffffffffffffffffffffffffffffffffffff1673ffffffffffffffffffffffffffffffffffffffff1681526020019060010190808311610935575b5050505050905090565b60606003805480602002602001604051908101604052809291908181526020016000905b82821015610a1857838290600052602060002090600402016040518060800160405290816000820154815260200160018201548152602001600282015481526020016003820160009054906101000a900460ff161515151581525050815260200190600101906109ad565b50505050905090565b60028181548110610a2e57fe5b90600052602060002090600502016000915090508060000154908060010154908060020160009054906101000a900473ffffffffffffffffffffffffffffffffffffffff16908060030154908060040160009054906101000a900460ff16905085565b600080905060008090505b600080549050811015610b26573373ffffffffffffffffffffffffffffffffffffffff1660008281548110610acd57fe5b9060005260206000200160009054906101000a900473ffffffffffffffffffffffffffffffffffffffff1673ffffffffffffffffffffffffffffffffffffffff161415610b1957600191505b8080600101915050610a9c565b506001151581151514610b3857600080fd5b6000151560028381548110610b4957fe5b906000526020600020906005020160040160009054906101000a900460ff16151514610baa576040517f08c379a0000000000000000000000000000000000000000000000000000000008152600401610ba1906115ef565b60405180910390fd5b60001515600460003373ffffffffffffffffffffffffffffffffffffffff1673ffffffffffffffffffffffffffffffffffffffff168152602001908152602001600020600084815260200190815260200160002060009054906101000a900460ff16151514610c4e576040517f08c379a0000000000000000000000000000000000000000000000000000000008152600401610c45906115af565b60405180910390fd5b60011515600460003373ffffffffffffffffffffffffffffffffffffffff1673ffffffffffffffffffffffffffffffffffffffff168152602001908152602001600020600084815260200190815260200160002060009054906101000a9050505060028281548110610cbc57fe5b90600052602060002090600502016003016000815480929190600101919050555060015460028381548110610ced57fe5b90600052602060002090600502016003015410610deb57600160028381548110610d1357fe5b906000526020600020906005020160040160006101000a81548160ff021916908315150217905550600060028381548110610d4a57fe5b906000526020600020906005020160020160009054906101000a900473ffffffffffffffffffffffffffffffffffffffff169050600060028481548110610d8d57fe5b90600052602060002090600502016001015490508173ffffffffffffffffffffffffffffffffffffffff166108fc829081150290604051600060405180830381858888f19350505050158015610de7573d6000803e3d6000fd5b5050505b5050565b60008181548110610dfc57fe5b906000526020600020016000915054906101000a900473ffffffffffffffffffffffffffffffffffffffff1681565b60038181548110610e3857fe5b90600052602060002090600402016000915090508060000154908060010154908060020154908060030160009054906101000a900460ff16905084565b600080905060008090505b600080549050811015610f0a573373ffffffffffffffffffffffffffffffffffffffff1660008281548110610eb157fe5b9060005260206000200160009054906101000a900473ffffffffffffffffffffffffffffffffffffffff1673ffffffffffffffffffffffffffffffffffffffff161415610efd57600191505b8080600101915050610e80565b506001151581151514610f1c57600080fd5b6003604051806080016040528060038054905081526020018481526020016000815260200160001515815250908060018154018082558091505060019003906000526020600020906004020160009091909190915060008201518160000155602082015181600101556040820151816002015560608201518160030160006101000a81548160ff02191690831515021790555050505050565b60046020528160005260406000206020528060005260406000206000915091509054906101000a900460ff1681565b600081359050610ff3816117d8565b92915050565b600081359050611008816117ef565b92915050565b60008135905061101d81611806565b92915050565b6000806040838503121561103657600080fd5b600061104485828601610fe4565b92505060206110558582860161100e565b9150509250929050565b60006020828403121561107157600080fd5b600061107f8482850161100e565b91505092915050565b6000806040838503121561109b57600080fd5b60006110a98582860161100e565b92505060206110ba85828601610ff9565b9150509250929050565b60006110d0838361112a565b60208301905092915050565b60006110e88383611418565b60808301905092915050565b6000611100838361146d565b60a08301905092915050565b61111581611790565b82525050565b61112481611790565b82525050565b6111338161177e565b82525050565b6111428161177e565b82525050565b6000611153826116f2565b61115d818561173a565b9350611168836116c2565b8060005b8381101561119957815161118088826110c4565b975061118b83611713565b92505060018101905061116c565b5085935050505092915050565b60006111b1826116fd565b6111bb818561174b565b93506111c6836116d2565b8060005b838110156111f75781516111de88826110dc565b97506111e983611720565b9250506001810190506111ca565b5085935050505092915050565b600061120f82611708565b611219818561175c565b9350611224836116e2565b8060005b8381101561125557815161123c88826110f4565b97506112478361172d565b925050600181019050611228565b5085935050505092915050565b61126b816117a2565b82525050565b61127a816117a2565b82525050565b600061128d602d8361176d565b91507f4572726f723a2043616e6e6f7420617070726f766520612071756f72756d207060008301527f726f706f73616c207477696365000000000000000000000000000000000000006020830152604082019050919050565b60006112f360268361176d565b91507f4572726f723a2043616e6e6f7420617070726f76652061207472616e7366657260008301527f20747769636500000000000000000000000000000000000000000000000000006020830152604082019050919050565b6000611359602f8361176d565b91507f4572726f723a2051756f72756d2070726f706f73616c732068617320616c726560008301527f616479206265656e2070617373656400000000000000000000000000000000006020830152604082019050919050565b60006113bf60258361176d565b91507f4572726f723a205472616e736665722068617320616c7265616479206265656e60008301527f2073656e740000000000000000000000000000000000000000000000000000006020830152604082019050919050565b60808201600082015161142e60008501826114d5565b50602082015161144160208501826114d5565b50604082015161145460408501826114d5565b5060608201516114676060850182611262565b50505050565b60a08201600082015161148360008501826114d5565b50602082015161149660208501826114d5565b5060408201516114a9604085018261110c565b5060608201516114bc60608501826114d5565b5060808201516114cf6080850182611262565b50505050565b6114de816117ce565b82525050565b6114ed816117ce565b82525050565b60006020820190506115086000830184611139565b92915050565b600060208201905081810360008301526115288184611148565b905092915050565b6000602082019050818103600083015261154a81846111a6565b905092915050565b6000602082019050818103600083015261156c8184611204565b905092915050565b60006020820190506115896000830184611271565b92915050565b600060208201905081810360008301526115a881611280565b9050919050565b600060208201905081810360008301526115c8816112e6565b9050919050565b600060208201905081810360008301526115e88161134c565b9050919050565b60006020820190508181036000830152611608816113b2565b9050919050565b600060208201905061162460008301846114e4565b92915050565b600060a08201905061163f60008301886114e4565b61164c60208301876114e4565b611659604083018661111b565b61166660608301856114e4565b6116736080830184611271565b9695505050505050565b600060808201905061169260008301876114e4565b61169f60208301866114e4565b6116ac60408301856114e4565b6116b96060830184611271565b95945050505050565b6000819050602082019050919050565b6000819050602082019050919050565b6000819050602082019050919050565b600081519050919050565b600081519050919050565b600081519050919050565b6000602082019050919050565b6000602082019050919050565b6000602082019050919050565b600082825260208201905092915050565b600082825260208201905092915050565b600082825260208201905092915050565b600082825260208201905092915050565b6000611789826117ae565b9050919050565b600061179b826117ae565b9050919050565b60008115159050919050565b600073ffffffffffffffffffffffffffffffffffffffff82169050919050565b6000819050919050565b6117e18161177e565b81146117ec57600080fd5b50565b6117f881611790565b811461180357600080fd5b50565b61180f816117ce565b811461181a57600080fd5b5056fea26469706673582212202bc5e48f4657cd388cbf91ec7c84ac2513e3e6b044aa9203061c94feceffa13664736f6c63430006000033",
  "source": "pragma solidity ^0.6.0;\r\npragma experimental ABIEncoderV2;\r\n\r\ncontract ChainwaveMultiSigWallet {\r\n    \r\n    address[] public approvers;\r\n    uint public quorum;\r\n    \r\n    struct Transfer{\r\n        uint id;\r\n        uint amount;\r\n        address payable to;\r\n        uint approvals;\r\n        bool sent;\r\n    }\r\n    \r\n    Transfer[] public transfers;\r\n    \r\n    struct QuorumProposal{\r\n        uint id;\r\n        uint quorum;\r\n        uint approvals;\r\n        bool passed;\r\n    }\r\n\r\n    QuorumProposal[] public quorumProposals;\r\n    \r\n    mapping(address => mapping(uint => bool)) public approvals;\r\n\r\n    mapping(address => mapping(uint => bool)) public quorumApprovals;\r\n    \r\n    constructor(address[] memory _approvers, uint _quorum) public {\r\n        approvers = _approvers;\r\n        quorum = _quorum;\r\n    }\r\n    \r\n    function getApprovers() external view returns (address[] memory){\r\n        return approvers;\r\n    }\r\n    \r\n     function getTransfers() external view returns (Transfer[] memory){\r\n        return transfers;\r\n    }\r\n\r\n    function getQuorumProposals() external view returns (QuorumProposal[] memory){\r\n        return quorumProposals;\r\n    }\r\n\r\n    function proposeQuorum(uint newQuorum) external onlyApprover() {\r\n         quorumProposals.push(\r\n             QuorumProposal(\r\n              quorumProposals.length,\r\n              newQuorum,\r\n              0,\r\n              false\r\n            ));\r\n    }\r\n\r\n    function approveQuorumProposal(uint id) external onlyApprover(){\r\n       require(quorumProposals[id].passed == false, \"Error: Quorum proposals has already been passed\");\r\n       require(quorumApprovals[msg.sender][id] == false, \"Error: Cannot approve a quorum proposal twice\");\r\n       \r\n       quorumApprovals[msg.sender][id] == true;\r\n       quorumProposals[id].approvals ++;\r\n       \r\n       if(quorumProposals[id].approvals >= quorum){\r\n           quorumProposals[id].passed = true;\r\n           uint newQuorum = quorumProposals[id].quorum;\r\n           quorum = newQuorum;\r\n       }\r\n    } \r\n\r\n    function createTransfer(uint amount, address payable to) external onlyApprover() {\r\n         transfers.push(\r\n             Transfer(\r\n              transfers.length,\r\n              amount,\r\n              to,\r\n              0,\r\n              false\r\n            ));\r\n    }\r\n    \r\n   function approveTransfer(uint id) external onlyApprover(){\r\n       require(transfers[id].sent == false, \"Error: Transfer has already been sent\");\r\n       require(approvals[msg.sender][id] == false, \"Error: Cannot approve a transfer twice\");\r\n       \r\n       approvals[msg.sender][id] == true;\r\n       transfers[id].approvals ++;\r\n       \r\n       if(transfers[id].approvals >= quorum){\r\n           transfers[id].sent = true;\r\n           address payable to = transfers[id].to;\r\n           uint amount = transfers[id].amount;\r\n           to.transfer(amount);\r\n       }\r\n   } \r\n   \r\n   receive() external payable {}\r\n    \r\n   modifier onlyApprover(){\r\n       bool allowed = false;\r\n       for(uint i = 0; i < approvers.length; i++){\r\n           if(approvers[i] == msg.sender){\r\n               allowed = true;\r\n           }\r\n       }\r\n       require(allowed == true);\r\n       _;\r\n   }\r\n\r\n    \r\n}",
  "sourcePath": "C:/Users/ben/desktop/ethereum/chainsig/contracts/ChainwaveMultiSigWallet.sol",
  "compiler": {
    "name": "solc",
    "version": "0.6.0+commit.26b70077.Emscripten.clang"
  },
  "schemaVersion": "3.2.5",
  "updatedAt": "2020-09-30T18:03:08.126Z",
  "networkType": "ethereum",
  "devdoc": {
    "methods": {}
  },
  "userdoc": {
    "methods": {}
  }
}