{
  "contractName": "ChainwaveMultiSigWallet",
  "abi": [
    {
      "inputs": [
        {
          "internalType": "address[]",
          "name": "_approvers",
          "type": "address[]"
        },
        {
          "internalType": "uint256",
          "name": "_quorum",
          "type": "uint256"
        }
      ],
      "stateMutability": "nonpayable",
      "type": "constructor"
    },
    {
      "inputs": [
        {
          "internalType": "address",
          "name": "",
          "type": "address"
        },
        {
          "internalType": "uint256",
          "name": "",
          "type": "uint256"
        }
      ],
      "name": "approvals",
      "outputs": [
        {
          "internalType": "bool",
          "name": "",
          "type": "bool"
        }
      ],
      "stateMutability": "view",
      "type": "function",
      "constant": true
    },
    {
      "inputs": [
        {
          "internalType": "address",
          "name": "",
          "type": "address"
        },
        {
          "internalType": "uint256",
          "name": "",
          "type": "uint256"
        }
      ],
      "name": "approverApprovals",
      "outputs": [
        {
          "internalType": "bool",
          "name": "",
          "type": "bool"
        }
      ],
      "stateMutability": "view",
      "type": "function",
      "constant": true
    },
    {
      "inputs": [
        {
          "internalType": "uint256",
          "name": "",
          "type": "uint256"
        }
      ],
      "name": "approverProposals",
      "outputs": [
        {
          "internalType": "uint256",
          "name": "id",
          "type": "uint256"
        },
        {
          "internalType": "address",
          "name": "newApprover",
          "type": "address"
        },
        {
          "internalType": "bool",
          "name": "adding",
          "type": "bool"
        },
        {
          "internalType": "uint256",
          "name": "approvals",
          "type": "uint256"
        },
        {
          "internalType": "bool",
          "name": "passed",
          "type": "bool"
        }
      ],
      "stateMutability": "view",
      "type": "function",
      "constant": true
    },
    {
      "inputs": [
        {
          "internalType": "uint256",
          "name": "",
          "type": "uint256"
        }
      ],
      "name": "approvers",
      "outputs": [
        {
          "internalType": "address",
          "name": "",
          "type": "address"
        }
      ],
      "stateMutability": "view",
      "type": "function",
      "constant": true
    },
    {
      "inputs": [],
      "name": "quorum",
      "outputs": [
        {
          "internalType": "uint256",
          "name": "",
          "type": "uint256"
        }
      ],
      "stateMutability": "view",
      "type": "function",
      "constant": true
    },
    {
      "inputs": [
        {
          "internalType": "address",
          "name": "",
          "type": "address"
        },
        {
          "internalType": "uint256",
          "name": "",
          "type": "uint256"
        }
      ],
      "name": "quorumApprovals",
      "outputs": [
        {
          "internalType": "bool",
          "name": "",
          "type": "bool"
        }
      ],
      "stateMutability": "view",
      "type": "function",
      "constant": true
    },
    {
      "inputs": [
        {
          "internalType": "uint256",
          "name": "",
          "type": "uint256"
        }
      ],
      "name": "quorumProposals",
      "outputs": [
        {
          "internalType": "uint256",
          "name": "id",
          "type": "uint256"
        },
        {
          "internalType": "uint256",
          "name": "quorum",
          "type": "uint256"
        },
        {
          "internalType": "uint256",
          "name": "approvals",
          "type": "uint256"
        },
        {
          "internalType": "bool",
          "name": "passed",
          "type": "bool"
        }
      ],
      "stateMutability": "view",
      "type": "function",
      "constant": true
    },
    {
      "inputs": [
        {
          "internalType": "uint256",
          "name": "",
          "type": "uint256"
        }
      ],
      "name": "transfers",
      "outputs": [
        {
          "internalType": "uint256",
          "name": "id",
          "type": "uint256"
        },
        {
          "internalType": "uint256",
          "name": "amount",
          "type": "uint256"
        },
        {
          "internalType": "address payable",
          "name": "to",
          "type": "address"
        },
        {
          "internalType": "uint256",
          "name": "approvals",
          "type": "uint256"
        },
        {
          "internalType": "bool",
          "name": "sent",
          "type": "bool"
        }
      ],
      "stateMutability": "view",
      "type": "function",
      "constant": true
    },
    {
      "stateMutability": "payable",
      "type": "receive",
      "payable": true
    },
    {
      "inputs": [],
      "name": "getApprovers",
      "outputs": [
        {
          "internalType": "address[]",
          "name": "",
          "type": "address[]"
        }
      ],
      "stateMutability": "view",
      "type": "function",
      "constant": true
    },
    {
      "inputs": [],
      "name": "getTransfers",
      "outputs": [
        {
          "components": [
            {
              "internalType": "uint256",
              "name": "id",
              "type": "uint256"
            },
            {
              "internalType": "uint256",
              "name": "amount",
              "type": "uint256"
            },
            {
              "internalType": "address payable",
              "name": "to",
              "type": "address"
            },
            {
              "internalType": "uint256",
              "name": "approvals",
              "type": "uint256"
            },
            {
              "internalType": "bool",
              "name": "sent",
              "type": "bool"
            }
          ],
          "internalType": "struct ChainwaveMultiSigWallet.Transfer[]",
          "name": "",
          "type": "tuple[]"
        }
      ],
      "stateMutability": "view",
      "type": "function",
      "constant": true
    },
    {
      "inputs": [],
      "name": "getQuorumProposals",
      "outputs": [
        {
          "components": [
            {
              "internalType": "uint256",
              "name": "id",
              "type": "uint256"
            },
            {
              "internalType": "uint256",
              "name": "quorum",
              "type": "uint256"
            },
            {
              "internalType": "uint256",
              "name": "approvals",
              "type": "uint256"
            },
            {
              "internalType": "bool",
              "name": "passed",
              "type": "bool"
            }
          ],
          "internalType": "struct ChainwaveMultiSigWallet.QuorumProposal[]",
          "name": "",
          "type": "tuple[]"
        }
      ],
      "stateMutability": "view",
      "type": "function",
      "constant": true
    },
    {
      "inputs": [],
      "name": "getApproverProposals",
      "outputs": [
        {
          "components": [
            {
              "internalType": "uint256",
              "name": "id",
              "type": "uint256"
            },
            {
              "internalType": "address",
              "name": "newApprover",
              "type": "address"
            },
            {
              "internalType": "bool",
              "name": "adding",
              "type": "bool"
            },
            {
              "internalType": "uint256",
              "name": "approvals",
              "type": "uint256"
            },
            {
              "internalType": "bool",
              "name": "passed",
              "type": "bool"
            }
          ],
          "internalType": "struct ChainwaveMultiSigWallet.ApproverProposal[]",
          "name": "",
          "type": "tuple[]"
        }
      ],
      "stateMutability": "view",
      "type": "function",
      "constant": true
    },
    {
      "inputs": [
        {
          "internalType": "address",
          "name": "approverAddr",
          "type": "address"
        },
        {
          "internalType": "bool",
          "name": "adding",
          "type": "bool"
        }
      ],
      "name": "proposeApproverChange",
      "outputs": [],
      "stateMutability": "nonpayable",
      "type": "function"
    },
    {
      "inputs": [
        {
          "internalType": "uint256",
          "name": "id",
          "type": "uint256"
        }
      ],
      "name": "approveApproverProposal",
      "outputs": [],
      "stateMutability": "nonpayable",
      "type": "function"
    },
    {
      "inputs": [
        {
          "internalType": "uint256",
          "name": "newQuorum",
          "type": "uint256"
        }
      ],
      "name": "proposeQuorum",
      "outputs": [],
      "stateMutability": "nonpayable",
      "type": "function"
    },
    {
      "inputs": [
        {
          "internalType": "uint256",
          "name": "id",
          "type": "uint256"
        }
      ],
      "name": "approveQuorumProposal",
      "outputs": [],
      "stateMutability": "nonpayable",
      "type": "function"
    },
    {
      "inputs": [
        {
          "internalType": "uint256",
          "name": "amount",
          "type": "uint256"
        },
        {
          "internalType": "address payable",
          "name": "to",
          "type": "address"
        }
      ],
      "name": "createTransfer",
      "outputs": [],
      "stateMutability": "nonpayable",
      "type": "function"
    },
    {
      "inputs": [
        {
          "internalType": "uint256",
          "name": "id",
          "type": "uint256"
        }
      ],
      "name": "approveTransfer",
      "outputs": [],
      "stateMutability": "nonpayable",
      "type": "function"
    }
  ],
  "bytecode": "0x60806040523480156200001157600080fd5b5060405162002930380380620029308339818101604052620000379190810190620001ef565b81600090805190602001906200004f9291906200005f565b5080600181905550505062000312565b828054828255906000526020600020908101928215620000db579160200282015b82811115620000da5782518260006101000a81548173ffffffffffffffffffffffffffffffffffffffff021916908373ffffffffffffffffffffffffffffffffffffffff1602179055509160200191906001019062000080565b5b509050620000ea9190620000ee565b5090565b6200013191905b808211156200012d57600081816101000a81549073ffffffffffffffffffffffffffffffffffffffff021916905550600101620000f5565b5090565b90565b6000815190506200014581620002de565b92915050565b600082601f8301126200015d57600080fd5b8151620001746200016e8262000277565b62000249565b915081818352602084019350602081019050838560208402820111156200019a57600080fd5b60005b83811015620001ce5781620001b3888262000134565b8452602084019350602083019250506001810190506200019d565b5050505092915050565b600081519050620001e981620002f8565b92915050565b600080604083850312156200020357600080fd5b600083015167ffffffffffffffff8111156200021e57600080fd5b6200022c858286016200014b565b92505060206200023f85828601620001d8565b9150509250929050565b6000604051905081810181811067ffffffffffffffff821117156200026d57600080fd5b8060405250919050565b600067ffffffffffffffff8211156200028f57600080fd5b602082029050602081019050919050565b6000620002ad82620002b4565b9050919050565b600073ffffffffffffffffffffffffffffffffffffffff82169050919050565b6000819050919050565b620002e981620002a0565b8114620002f557600080fd5b50565b6200030381620002d4565b81146200030f57600080fd5b50565b61260e80620003226000396000f3fe60806040526004361061010d5760003560e01c806378964a7b11610095578063d3650fb811610064578063d3650fb814610390578063d432e7b3146103cd578063ec94a8961461040d578063fcdfb83814610436578063ffabc6731461045f57610114565b806378964a7b146102bc5780638bdfe8ef146102e55780639377d71114610326578063cacca4a01461036757610114565b80633f84203d116100dc5780633f84203d146101d55780634c12fa471461021257806368c9c73c1461023b5780636cb3e8ef146102665780636dd3c01c1461029157610114565b80631703a018146101195780632814c826146101445780632f65142c146101815780633948d2d9146101ac57610114565b3661011457005b600080fd5b34801561012557600080fd5b5061012e61049c565b60405161013b9190612327565b60405180910390f35b34801561015057600080fd5b5061016b60048036036101669190810190611b2f565b6104a2565b604051610178919061224c565b60405180910390f35b34801561018d57600080fd5b506101966104d1565b6040516101a3919061222a565b60405180910390f35b3480156101b857600080fd5b506101d360048036036101ce9190810190611b6b565b6105bf565b005b3480156101e157600080fd5b506101fc60048036036101f79190810190611b2f565b610899565b604051610209919061224c565b60405180910390f35b34801561021e57600080fd5b5061023960048036036102349190810190611b94565b6108c8565b005b34801561024757600080fd5b50610250610a6c565b60405161025d91906121e6565b60405180910390f35b34801561027257600080fd5b5061027b610b6b565b60405161028891906121c4565b60405180910390f35b34801561029d57600080fd5b506102a6610bf9565b6040516102b39190612208565b60405180910390f35b3480156102c857600080fd5b506102e360048036036102de9190810190611b6b565b610c91565b005b3480156102f157600080fd5b5061030c60048036036103079190810190611b6b565b6110d5565b60405161031d959493929190612342565b60405180910390f35b34801561033257600080fd5b5061034d60048036036103489190810190611b6b565b611152565b60405161035e959493929190612395565b60405180910390f35b34801561037357600080fd5b5061038e60048036036103899190810190611b6b565b6111c2565b005b34801561039c57600080fd5b506103b760048036036103b29190810190611b6b565b611520565b6040516103c491906121a9565b60405180910390f35b3480156103d957600080fd5b506103f460048036036103ef9190810190611b6b565b61155c565b60405161040494939291906123e8565b60405180910390f35b34801561041957600080fd5b50610434600480360361042f9190810190611af3565b6115a6565b005b34801561044257600080fd5b5061045d60048036036104589190810190611b6b565b611930565b005b34801561046b57600080fd5b5061048660048036036104819190810190611b2f565b611a70565b604051610493919061224c565b60405180910390f35b60015481565b60076020528160005260406000206020528060005260406000206000915091509054906101000a900460ff1681565b60606002805480602002602001604051908101604052809291908181526020016000905b828210156105b657838290600052602060002090600502016040518060a001604052908160008201548152602001600182015481526020016002820160009054906101000a900473ffffffffffffffffffffffffffffffffffffffff1673ffffffffffffffffffffffffffffffffffffffff1673ffffffffffffffffffffffffffffffffffffffff168152602001600382015481526020016004820160009054906101000a900460ff161515151581525050815260200190600101906104f5565b50505050905090565b600080905060008090505b600080549050811015610654573373ffffffffffffffffffffffffffffffffffffffff16600082815481106105fb57fe5b9060005260206000200160009054906101000a900473ffffffffffffffffffffffffffffffffffffffff1673ffffffffffffffffffffffffffffffffffffffff16141561064757600191505b80806001019150506105ca565b50600115158115151461066657600080fd5b600015156003838154811061067757fe5b906000526020600020906004020160030160009054906101000a900460ff161515146106d8576040517f08c379a00000000000000000000000000000000000000000000000000000000081526004016106cf906122e7565b60405180910390fd5b60001515600660003373ffffffffffffffffffffffffffffffffffffffff1673ffffffffffffffffffffffffffffffffffffffff168152602001908152602001600020600084815260200190815260200160002060009054906101000a900460ff1615151461077c576040517f08c379a000000000000000000000000000000000000000000000000000000000815260040161077390612267565b60405180910390fd5b60011515600660003373ffffffffffffffffffffffffffffffffffffffff1673ffffffffffffffffffffffffffffffffffffffff168152602001908152602001600020600084815260200190815260200160002060009054906101000a90505050600382815481106107ea57fe5b9060005260206000209060040201600201600081548092919060010191905055506001546003838154811061081b57fe5b906000526020600020906004020160020154106108955760016003838154811061084157fe5b906000526020600020906004020160030160006101000a81548160ff02191690831515021790555060006003838154811061087857fe5b906000526020600020906004020160010154905080600181905550505b5050565b60066020528160005260406000206020528060005260406000206000915091509054906101000a900460ff1681565b600080905060008090505b60008054905081101561095d573373ffffffffffffffffffffffffffffffffffffffff166000828154811061090457fe5b9060005260206000200160009054906101000a900473ffffffffffffffffffffffffffffffffffffffff1673ffffffffffffffffffffffffffffffffffffffff16141561095057600191505b80806001019150506108d3565b50600115158115151461096f57600080fd5b60026040518060a0016040528060028054905081526020018581526020018473ffffffffffffffffffffffffffffffffffffffff16815260200160008152602001600015158152509080600181540180825580915050600190039060005260206000209060050201600090919091909150600082015181600001556020820151816001015560408201518160020160006101000a81548173ffffffffffffffffffffffffffffffffffffffff021916908373ffffffffffffffffffffffffffffffffffffffff1602179055506060820151816003015560808201518160040160006101000a81548160ff0219169083151502179055505050505050565b60606004805480602002602001604051908101604052809291908181526020016000905b82821015610b6257838290600052602060002090600402016040518060a0016040529081600082015481526020016001820160009054906101000a900473ffffffffffffffffffffffffffffffffffffffff1673ffffffffffffffffffffffffffffffffffffffff1673ffffffffffffffffffffffffffffffffffffffff1681526020016001820160149054906101000a900460ff16151515158152602001600282015481526020016003820160009054906101000a900460ff16151515158152505081526020019060010190610a90565b50505050905090565b60606000805480602002602001604051908101604052809291908181526020018280548015610bef57602002820191906000526020600020905b8160009054906101000a900473ffffffffffffffffffffffffffffffffffffffff1673ffffffffffffffffffffffffffffffffffffffff1681526020019060010190808311610ba5575b5050505050905090565b60606003805480602002602001604051908101604052809291908181526020016000905b82821015610c8857838290600052602060002090600402016040518060800160405290816000820154815260200160018201548152602001600282015481526020016003820160009054906101000a900460ff16151515158152505081526020019060010190610c1d565b50505050905090565b600080905060008090505b600080549050811015610d26573373ffffffffffffffffffffffffffffffffffffffff1660008281548110610ccd57fe5b9060005260206000200160009054906101000a900473ffffffffffffffffffffffffffffffffffffffff1673ffffffffffffffffffffffffffffffffffffffff161415610d1957600191505b8080600101915050610c9c565b506001151581151514610d3857600080fd5b6000151560048381548110610d4957fe5b906000526020600020906004020160030160009054906101000a900460ff16151514610daa576040517f08c379a0000000000000000000000000000000000000000000000000000000008152600401610da1906122a7565b60405180910390fd5b60001515600760003373ffffffffffffffffffffffffffffffffffffffff1673ffffffffffffffffffffffffffffffffffffffff168152602001908152602001600020600084815260200190815260200160002060009054906101000a900460ff16151514610e4e576040517f08c379a0000000000000000000000000000000000000000000000000000000008152600401610e4590612287565b60405180910390fd5b60011515600760003373ffffffffffffffffffffffffffffffffffffffff1673ffffffffffffffffffffffffffffffffffffffff168152602001908152602001600020600084815260200190815260200160002060009054906101000a9050505060048281548110610ebc57fe5b90600052602060002090600402016002016000815480929190600101919050555060015460048381548110610eed57fe5b906000526020600020906004020160020154106110d157600160048381548110610f1357fe5b906000526020600020906004020160030160006101000a81548160ff0219169083151502179055506001151560048381548110610f4c57fe5b906000526020600020906004020160010160149054906101000a900460ff161515141561101957600060048381548110610f8257fe5b906000526020600020906004020160010160009054906101000a900473ffffffffffffffffffffffffffffffffffffffff169080600181540180825580915050600190039060005260206000200160009091909190916101000a81548173ffffffffffffffffffffffffffffffffffffffff021916908373ffffffffffffffffffffffffffffffffffffffff1602179055506110d0565b600015156004838154811061102a57fe5b906000526020600020906004020160010160149054906101000a900460ff16151514156110cf576004828154811061105e57fe5b90600052602060002090600402016000808201600090556001820160006101000a81549073ffffffffffffffffffffffffffffffffffffffff02191690556001820160146101000a81549060ff021916905560028201600090556003820160006101000a81549060ff021916905550505b5b5b5050565b600481815481106110e257fe5b90600052602060002090600402016000915090508060000154908060010160009054906101000a900473ffffffffffffffffffffffffffffffffffffffff16908060010160149054906101000a900460ff16908060020154908060030160009054906101000a900460ff16905085565b6002818154811061115f57fe5b90600052602060002090600502016000915090508060000154908060010154908060020160009054906101000a900473ffffffffffffffffffffffffffffffffffffffff16908060030154908060040160009054906101000a900460ff16905085565b600080905060008090505b600080549050811015611257573373ffffffffffffffffffffffffffffffffffffffff16600082815481106111fe57fe5b9060005260206000200160009054906101000a900473ffffffffffffffffffffffffffffffffffffffff1673ffffffffffffffffffffffffffffffffffffffff16141561124a57600191505b80806001019150506111cd565b50600115158115151461126957600080fd5b600015156002838154811061127a57fe5b906000526020600020906005020160040160009054906101000a900460ff161515146112db576040517f08c379a00000000000000000000000000000000000000000000000000000000081526004016112d290612307565b60405180910390fd5b60001515600560003373ffffffffffffffffffffffffffffffffffffffff1673ffffffffffffffffffffffffffffffffffffffff168152602001908152602001600020600084815260200190815260200160002060009054906101000a900460ff1615151461137f576040517f08c379a0000000000000000000000000000000000000000000000000000000008152600401611376906122c7565b60405180910390fd5b60011515600560003373ffffffffffffffffffffffffffffffffffffffff1673ffffffffffffffffffffffffffffffffffffffff168152602001908152602001600020600084815260200190815260200160002060009054906101000a90505050600282815481106113ed57fe5b9060005260206000209060050201600301600081548092919060010191905055506001546002838154811061141e57fe5b9060005260206000209060050201600301541061151c5760016002838154811061144457fe5b906000526020600020906005020160040160006101000a81548160ff02191690831515021790555060006002838154811061147b57fe5b906000526020600020906005020160020160009054906101000a900473ffffffffffffffffffffffffffffffffffffffff1690506000600284815481106114be57fe5b90600052602060002090600502016001015490508173ffffffffffffffffffffffffffffffffffffffff166108fc829081150290604051600060405180830381858888f19350505050158015611518573d6000803e3d6000fd5b5050505b5050565b6000818154811061152d57fe5b906000526020600020016000915054906101000a900473ffffffffffffffffffffffffffffffffffffffff1681565b6003818154811061156957fe5b90600052602060002090600402016000915090508060000154908060010154908060020154908060030160009054906101000a900460ff16905084565b600080905060008090505b60008054905081101561163b573373ffffffffffffffffffffffffffffffffffffffff16600082815481106115e257fe5b9060005260206000200160009054906101000a900473ffffffffffffffffffffffffffffffffffffffff1673ffffffffffffffffffffffffffffffffffffffff16141561162e57600191505b80806001019150506115b1565b50600115158115151461164d57600080fd5b600080905060008090505b6000805490508110156116e2578473ffffffffffffffffffffffffffffffffffffffff166000828154811061168957fe5b9060005260206000200160009054906101000a900473ffffffffffffffffffffffffffffffffffffffff1673ffffffffffffffffffffffffffffffffffffffff1614156116d557600191505b8080600101915050611658565b508280156116ee575080155b156118085760046040518060a0016040528060048054905081526020018673ffffffffffffffffffffffffffffffffffffffff1681526020018515158152602001600081526020016000151581525090806001815401808255809150506001900390600052602060002090600402016000909190919091506000820151816000015560208201518160010160006101000a81548173ffffffffffffffffffffffffffffffffffffffff021916908373ffffffffffffffffffffffffffffffffffffffff16021790555060408201518160010160146101000a81548160ff0219169083151502179055506060820151816002015560808201518160030160006101000a81548160ff021916908315150217905550505061192a565b821580156118135750805b156119295760046040518060a0016040528060048054905081526020018673ffffffffffffffffffffffffffffffffffffffff1681526020018515158152602001600081526020016000151581525090806001815401808255809150506001900390600052602060002090600402016000909190919091506000820151816000015560208201518160010160006101000a81548173ffffffffffffffffffffffffffffffffffffffff021916908373ffffffffffffffffffffffffffffffffffffffff16021790555060408201518160010160146101000a81548160ff0219169083151502179055506060820151816002015560808201518160030160006101000a81548160ff02191690831515021790555050505b5b50505050565b600080905060008090505b6000805490508110156119c5573373ffffffffffffffffffffffffffffffffffffffff166000828154811061196c57fe5b9060005260206000200160009054906101000a900473ffffffffffffffffffffffffffffffffffffffff1673ffffffffffffffffffffffffffffffffffffffff1614156119b857600191505b808060010191505061193b565b5060011515811515146119d757600080fd5b6003604051806080016040528060038054905081526020018481526020016000815260200160001515815250908060018154018082558091505060019003906000526020600020906004020160009091909190915060008201518160000155602082015181600101556040820151816002015560608201518160030160006101000a81548160ff02191690831515021790555050505050565b60056020528160005260406000206020528060005260406000206000915091509054906101000a900460ff1681565b600081359050611aae8161257c565b92915050565b600081359050611ac381612593565b92915050565b600081359050611ad8816125aa565b92915050565b600081359050611aed816125c1565b92915050565b60008060408385031215611b0657600080fd5b6000611b1485828601611a9f565b9250506020611b2585828601611ac9565b9150509250929050565b60008060408385031215611b4257600080fd5b6000611b5085828601611a9f565b9250506020611b6185828601611ade565b9150509250929050565b600060208284031215611b7d57600080fd5b6000611b8b84828501611ade565b91505092915050565b60008060408385031215611ba757600080fd5b6000611bb585828601611ade565b9250506020611bc685828601611ab4565b9150509250929050565b6000611bdc8383611c4e565b60208301905092915050565b6000611bf48383612066565b60a08301905092915050565b6000611c0c83836120ce565b60808301905092915050565b6000611c248383612123565b60a08301905092915050565b611c3981612534565b82525050565b611c4881612534565b82525050565b611c5781612522565b82525050565b611c6681612522565b82525050565b6000611c778261246d565b611c8181856124cd565b9350611c8c8361242d565b8060005b83811015611cbd578151611ca48882611bd0565b9750611caf83612499565b925050600181019050611c90565b5085935050505092915050565b6000611cd582612478565b611cdf81856124de565b9350611cea8361243d565b8060005b83811015611d1b578151611d028882611be8565b9750611d0d836124a6565b925050600181019050611cee565b5085935050505092915050565b6000611d3382612483565b611d3d81856124ef565b9350611d488361244d565b8060005b83811015611d79578151611d608882611c00565b9750611d6b836124b3565b925050600181019050611d4c565b5085935050505092915050565b6000611d918261248e565b611d9b8185612500565b9350611da68361245d565b8060005b83811015611dd7578151611dbe8882611c18565b9750611dc9836124c0565b925050600181019050611daa565b5085935050505092915050565b611ded81612546565b82525050565b611dfc81612546565b82525050565b6000611e0f602d83612511565b91507f4572726f723a2043616e6e6f7420617070726f766520612071756f72756d207060008301527f726f706f73616c207477696365000000000000000000000000000000000000006020830152604082019050919050565b6000611e75603083612511565b91507f4572726f723a2043616e6e6f7420617070726f766520616e20417070726f766560008301527f722070726f706f73616c207477696365000000000000000000000000000000006020830152604082019050919050565b6000611edb603183612511565b91507f4572726f723a20417070726f7665722070726f706f73616c732068617320616c60008301527f7265616479206265656e207061737365640000000000000000000000000000006020830152604082019050919050565b6000611f41602683612511565b91507f4572726f723a2043616e6e6f7420617070726f76652061207472616e7366657260008301527f20747769636500000000000000000000000000000000000000000000000000006020830152604082019050919050565b6000611fa7602f83612511565b91507f4572726f723a2051756f72756d2070726f706f73616c732068617320616c726560008301527f616479206265656e2070617373656400000000000000000000000000000000006020830152604082019050919050565b600061200d602583612511565b91507f4572726f723a205472616e736665722068617320616c7265616479206265656e60008301527f2073656e740000000000000000000000000000000000000000000000000000006020830152604082019050919050565b60a08201600082015161207c600085018261218b565b50602082015161208f6020850182611c4e565b5060408201516120a26040850182611de4565b5060608201516120b5606085018261218b565b5060808201516120c86080850182611de4565b50505050565b6080820160008201516120e4600085018261218b565b5060208201516120f7602085018261218b565b50604082015161210a604085018261218b565b50606082015161211d6060850182611de4565b50505050565b60a082016000820151612139600085018261218b565b50602082015161214c602085018261218b565b50604082015161215f6040850182611c30565b506060820151612172606085018261218b565b5060808201516121856080850182611de4565b50505050565b61219481612572565b82525050565b6121a381612572565b82525050565b60006020820190506121be6000830184611c5d565b92915050565b600060208201905081810360008301526121de8184611c6c565b905092915050565b600060208201905081810360008301526122008184611cca565b905092915050565b600060208201905081810360008301526122228184611d28565b905092915050565b600060208201905081810360008301526122448184611d86565b905092915050565b60006020820190506122616000830184611df3565b92915050565b6000602082019050818103600083015261228081611e02565b9050919050565b600060208201905081810360008301526122a081611e68565b9050919050565b600060208201905081810360008301526122c081611ece565b9050919050565b600060208201905081810360008301526122e081611f34565b9050919050565b6000602082019050818103600083015261230081611f9a565b9050919050565b6000602082019050818103600083015261232081612000565b9050919050565b600060208201905061233c600083018461219a565b92915050565b600060a082019050612357600083018861219a565b6123646020830187611c5d565b6123716040830186611df3565b61237e606083018561219a565b61238b6080830184611df3565b9695505050505050565b600060a0820190506123aa600083018861219a565b6123b7602083018761219a565b6123c46040830186611c3f565b6123d1606083018561219a565b6123de6080830184611df3565b9695505050505050565b60006080820190506123fd600083018761219a565b61240a602083018661219a565b612417604083018561219a565b6124246060830184611df3565b95945050505050565b6000819050602082019050919050565b6000819050602082019050919050565b6000819050602082019050919050565b6000819050602082019050919050565b600081519050919050565b600081519050919050565b600081519050919050565b600081519050919050565b6000602082019050919050565b6000602082019050919050565b6000602082019050919050565b6000602082019050919050565b600082825260208201905092915050565b600082825260208201905092915050565b600082825260208201905092915050565b600082825260208201905092915050565b600082825260208201905092915050565b600061252d82612552565b9050919050565b600061253f82612552565b9050919050565b60008115159050919050565b600073ffffffffffffffffffffffffffffffffffffffff82169050919050565b6000819050919050565b61258581612522565b811461259057600080fd5b50565b61259c81612534565b81146125a757600080fd5b50565b6125b381612546565b81146125be57600080fd5b50565b6125ca81612572565b81146125d557600080fd5b5056fea26469706673582212202041aac622649e78a6283f0e17bf4c0084f1b0b3df8b36a0b75022f4b7ab3c1464736f6c63430006000033",
  "source": "pragma solidity ^0.6.0;\r\npragma experimental ABIEncoderV2;\r\n\r\ncontract ChainwaveMultiSigWallet {\r\n    address[] public approvers;\r\n    uint256 public quorum;\r\n\r\n    \r\n    struct Transfer {\r\n        uint256 id;\r\n        uint256 amount;\r\n        address payable to;\r\n        uint256 approvals;\r\n        bool sent;\r\n    }\r\n\r\n    Transfer[] public transfers;\r\n\r\n    struct QuorumProposal {\r\n        uint256 id;\r\n        uint256 quorum;\r\n        uint256 approvals;\r\n        bool passed;\r\n    }\r\n\r\n    QuorumProposal[] public quorumProposals;\r\n\r\n    struct ApproverProposal {\r\n        uint256 id;\r\n        address newApprover;\r\n        bool adding;\r\n        uint256 approvals;\r\n        bool passed;\r\n    }\r\n\r\n    ApproverProposal[] public approverProposals;\r\n\r\n    mapping(address => mapping(uint256 => bool)) public approvals;\r\n    mapping(address => mapping(uint256 => bool)) public quorumApprovals;\r\n    mapping(address => mapping(uint256 => bool)) public approverApprovals;\r\n\r\n    /////////////EVENTS\r\n\r\n    constructor(address[] memory _approvers, uint256 _quorum) public {\r\n        approvers = _approvers;\r\n        quorum = _quorum;\r\n    }\r\n\r\n    function getApprovers() external view returns (address[] memory) {\r\n        return approvers;\r\n    }\r\n\r\n    function getTransfers() external view returns (Transfer[] memory) {\r\n        return transfers;\r\n    }\r\n\r\n    function getQuorumProposals()\r\n        external\r\n        view\r\n        returns (QuorumProposal[] memory)\r\n    {\r\n        return quorumProposals;\r\n    }\r\n\r\n    function getApproverProposals()\r\n        external\r\n        view\r\n        returns (ApproverProposal[] memory)\r\n    {\r\n        return approverProposals;\r\n    }\r\n\r\n    function proposeApproverChange(address approverAddr, bool adding)\r\n        external\r\n        onlyApprover()\r\n    {\r\n        bool approverIsPresent = false;\r\n\r\n        for (uint256 i = 0; i < approvers.length; i++) {\r\n            if (approvers[i] == approverAddr) {\r\n                approverIsPresent = true;\r\n            } \r\n        }\r\n\r\n        if (adding && !approverIsPresent) {\r\n            approverProposals.push(\r\n                ApproverProposal(\r\n                    approverProposals.length,\r\n                    approverAddr,\r\n                    adding,\r\n                    0,\r\n                    false\r\n                )\r\n          );\r\n        } \r\n        \r\n        else if (!adding && approverIsPresent) {      \r\n          approverProposals.push(\r\n            ApproverProposal(\r\n                approverProposals.length,\r\n                approverAddr,\r\n                adding,\r\n                0,\r\n                false\r\n            )\r\n            );\r\n        }\r\n\r\n    }\r\n\r\n    function approveApproverProposal(uint256 id) external onlyApprover() {\r\n        require(\r\n            approverProposals[id].passed == false,\r\n            \"Error: Approver proposals has already been passed\"\r\n        );\r\n        require(\r\n            approverApprovals[msg.sender][id] == false,\r\n            \"Error: Cannot approve an Approver proposal twice\"\r\n        );\r\n\r\n        approverApprovals[msg.sender][id] == true;\r\n        approverProposals[id].approvals++;\r\n\r\n        if (approverProposals[id].approvals >= quorum) {\r\n            approverProposals[id].passed = true;\r\n\r\n            //if passed, we get the address and the action (add or remove) and then do it\r\n            if (approverProposals[id].adding == true) {\r\n               approvers.push( approverProposals[id].newApprover);\r\n            } else if (approverProposals[id].adding == false) {\r\n                delete  approverProposals[id];\r\n            }\r\n      \r\n        }\r\n    }\r\n\r\n    function proposeQuorum(uint256 newQuorum) external onlyApprover() {\r\n        quorumProposals.push(\r\n            QuorumProposal(quorumProposals.length, newQuorum, 0, false)\r\n        );\r\n    }\r\n\r\n    function approveQuorumProposal(uint256 id) external onlyApprover() {\r\n        require(\r\n            quorumProposals[id].passed == false,\r\n            \"Error: Quorum proposals has already been passed\"\r\n        );\r\n        require(\r\n            quorumApprovals[msg.sender][id] == false,\r\n            \"Error: Cannot approve a quorum proposal twice\"\r\n        );\r\n\r\n        quorumApprovals[msg.sender][id] == true;\r\n        quorumProposals[id].approvals++;\r\n\r\n        if (quorumProposals[id].approvals >= quorum) {\r\n            quorumProposals[id].passed = true;\r\n            uint256 newQuorum = quorumProposals[id].quorum;\r\n            quorum = newQuorum;\r\n        }\r\n    }\r\n\r\n    function createTransfer(uint256 amount, address payable to)\r\n        external\r\n        onlyApprover()\r\n    {\r\n        transfers.push(Transfer(transfers.length, amount, to, 0, false));\r\n    }\r\n\r\n    function approveTransfer(uint256 id) external onlyApprover() {\r\n        require(\r\n            transfers[id].sent == false,\r\n            \"Error: Transfer has already been sent\"\r\n        );\r\n        require(\r\n            approvals[msg.sender][id] == false,\r\n            \"Error: Cannot approve a transfer twice\"\r\n        );\r\n\r\n        approvals[msg.sender][id] == true;\r\n        transfers[id].approvals++;\r\n\r\n        if (transfers[id].approvals >= quorum) {\r\n            transfers[id].sent = true;\r\n            address payable to = transfers[id].to;\r\n            uint256 amount = transfers[id].amount;\r\n            to.transfer(amount);\r\n        }\r\n    }\r\n\r\n    receive() external payable {}\r\n\r\n    modifier onlyApprover() {\r\n        bool allowed = false;\r\n        for (uint256 i = 0; i < approvers.length; i++) {\r\n            if (approvers[i] == msg.sender) {\r\n                allowed = true;\r\n            }\r\n        }\r\n        require(allowed == true);\r\n        _;\r\n    }\r\n}\r\n",
  "sourcePath": "C:/Users/ben/desktop/ethereum/chainsig/contracts/ChainwaveMultiSigWallet.sol",
  "compiler": {
    "name": "solc",
    "version": "0.6.0+commit.26b70077.Emscripten.clang"
  },
  "schemaVersion": "3.2.5",
  "updatedAt": "2020-10-04T17:16:01.906Z",
  "networkType": "ethereum",
  "devdoc": {
    "methods": {}
  },
  "userdoc": {
    "methods": {
      "constructor": "//////////EVENTS"
    }
  }
}